{
  "_format": "hh-sol-artifact-1",
  "contractName": "RandomIpfsNft",
  "sourceName": "contracts/RandomIpfsNft.sol",
  "abi": [
    {
      "inputs": [],
      "stateMutability": "nonpayable",
      "type": "constructor"
    },
    {
      "anonymous": false,
      "inputs": [
        {
          "indexed": true,
          "internalType": "address",
          "name": "owner",
          "type": "address"
        },
        {
          "indexed": true,
          "internalType": "address",
          "name": "approved",
          "type": "address"
        },
        {
          "indexed": true,
          "internalType": "uint256",
          "name": "tokenId",
          "type": "uint256"
        }
      ],
      "name": "Approval",
      "type": "event"
    },
    {
      "anonymous": false,
      "inputs": [
        {
          "indexed": true,
          "internalType": "address",
          "name": "owner",
          "type": "address"
        },
        {
          "indexed": true,
          "internalType": "address",
          "name": "operator",
          "type": "address"
        },
        {
          "indexed": false,
          "internalType": "bool",
          "name": "approved",
          "type": "bool"
        }
      ],
      "name": "ApprovalForAll",
      "type": "event"
    },
    {
      "anonymous": false,
      "inputs": [
        {
          "indexed": true,
          "internalType": "address",
          "name": "from",
          "type": "address"
        },
        {
          "indexed": true,
          "internalType": "address",
          "name": "to",
          "type": "address"
        },
        {
          "indexed": true,
          "internalType": "uint256",
          "name": "tokenId",
          "type": "uint256"
        }
      ],
      "name": "Transfer",
      "type": "event"
    },
    {
      "inputs": [
        {
          "internalType": "address",
          "name": "to",
          "type": "address"
        },
        {
          "internalType": "uint256",
          "name": "tokenId",
          "type": "uint256"
        }
      ],
      "name": "approve",
      "outputs": [],
      "stateMutability": "nonpayable",
      "type": "function"
    },
    {
      "inputs": [
        {
          "internalType": "address",
          "name": "owner",
          "type": "address"
        }
      ],
      "name": "balanceOf",
      "outputs": [
        {
          "internalType": "uint256",
          "name": "",
          "type": "uint256"
        }
      ],
      "stateMutability": "view",
      "type": "function"
    },
    {
      "inputs": [
        {
          "internalType": "uint256",
          "name": "tokenId",
          "type": "uint256"
        }
      ],
      "name": "getApproved",
      "outputs": [
        {
          "internalType": "address",
          "name": "",
          "type": "address"
        }
      ],
      "stateMutability": "view",
      "type": "function"
    },
    {
      "inputs": [
        {
          "internalType": "address",
          "name": "owner",
          "type": "address"
        },
        {
          "internalType": "address",
          "name": "operator",
          "type": "address"
        }
      ],
      "name": "isApprovedForAll",
      "outputs": [
        {
          "internalType": "bool",
          "name": "",
          "type": "bool"
        }
      ],
      "stateMutability": "view",
      "type": "function"
    },
    {
      "inputs": [],
      "name": "name",
      "outputs": [
        {
          "internalType": "string",
          "name": "",
          "type": "string"
        }
      ],
      "stateMutability": "view",
      "type": "function"
    },
    {
      "inputs": [
        {
          "internalType": "uint256",
          "name": "tokenId",
          "type": "uint256"
        }
      ],
      "name": "ownerOf",
      "outputs": [
        {
          "internalType": "address",
          "name": "",
          "type": "address"
        }
      ],
      "stateMutability": "view",
      "type": "function"
    },
    {
      "inputs": [],
      "name": "requestDoggie",
      "outputs": [
        {
          "internalType": "uint256",
          "name": "requestId",
          "type": "uint256"
        }
      ],
      "stateMutability": "nonpayable",
      "type": "function"
    },
    {
      "inputs": [
        {
          "internalType": "address",
          "name": "from",
          "type": "address"
        },
        {
          "internalType": "address",
          "name": "to",
          "type": "address"
        },
        {
          "internalType": "uint256",
          "name": "tokenId",
          "type": "uint256"
        }
      ],
      "name": "safeTransferFrom",
      "outputs": [],
      "stateMutability": "nonpayable",
      "type": "function"
    },
    {
      "inputs": [
        {
          "internalType": "address",
          "name": "from",
          "type": "address"
        },
        {
          "internalType": "address",
          "name": "to",
          "type": "address"
        },
        {
          "internalType": "uint256",
          "name": "tokenId",
          "type": "uint256"
        },
        {
          "internalType": "bytes",
          "name": "_data",
          "type": "bytes"
        }
      ],
      "name": "safeTransferFrom",
      "outputs": [],
      "stateMutability": "nonpayable",
      "type": "function"
    },
    {
      "inputs": [
        {
          "internalType": "address",
          "name": "operator",
          "type": "address"
        },
        {
          "internalType": "bool",
          "name": "approved",
          "type": "bool"
        }
      ],
      "name": "setApprovalForAll",
      "outputs": [],
      "stateMutability": "nonpayable",
      "type": "function"
    },
    {
      "inputs": [
        {
          "internalType": "bytes4",
          "name": "interfaceId",
          "type": "bytes4"
        }
      ],
      "name": "supportsInterface",
      "outputs": [
        {
          "internalType": "bool",
          "name": "",
          "type": "bool"
        }
      ],
      "stateMutability": "view",
      "type": "function"
    },
    {
      "inputs": [],
      "name": "symbol",
      "outputs": [
        {
          "internalType": "string",
          "name": "",
          "type": "string"
        }
      ],
      "stateMutability": "view",
      "type": "function"
    },
    {
      "inputs": [
        {
          "internalType": "uint256",
          "name": "tokenId",
          "type": "uint256"
        }
      ],
      "name": "tokenURI",
      "outputs": [
        {
          "internalType": "string",
          "name": "",
          "type": "string"
        }
      ],
      "stateMutability": "view",
      "type": "function"
    },
    {
      "inputs": [
        {
          "internalType": "address",
          "name": "from",
          "type": "address"
        },
        {
          "internalType": "address",
          "name": "to",
          "type": "address"
        },
        {
          "internalType": "uint256",
          "name": "tokenId",
          "type": "uint256"
        }
      ],
      "name": "transferFrom",
      "outputs": [],
      "stateMutability": "nonpayable",
      "type": "function"
    }
  ],
  "bytecode": "0x60806040523480156200001157600080fd5b506040518060400160405280600f81526020017f52616e646f6d2049504653204e465400000000000000000000000000000000008152506040518060400160405280600381526020017f52494e0000000000000000000000000000000000000000000000000000000000815250816000908051906020019062000096929190620000b8565b508060019080519060200190620000af929190620000b8565b505050620001cd565b828054620000c69062000168565b90600052602060002090601f016020900481019282620000ea576000855562000136565b82601f106200010557805160ff191683800117855562000136565b8280016001018555821562000136579182015b828111156200013557825182559160200191906001019062000118565b5b50905062000145919062000149565b5090565b5b80821115620001645760008160009055506001016200014a565b5090565b600060028204905060018216806200018157607f821691505b602082108114156200019857620001976200019e565b5b50919050565b7f4e487b7100000000000000000000000000000000000000000000000000000000600052602260045260246000fd5b61261080620001dd6000396000f3fe608060405234801561001057600080fd5b50600436106100ea5760003560e01c80636352211e1161008c578063a22cb46511610066578063a22cb4651461025d578063b88d4fde14610279578063c87b56dd14610295578063e985e9c5146102c5576100ea565b80636352211e146101df57806370a082311461020f57806395d89b411461023f576100ea565b8063095ea7b3116100c8578063095ea7b31461016d5780631801cc8a1461018957806323b872dd146101a757806342842e0e146101c3576100ea565b806301ffc9a7146100ef57806306fdde031461011f578063081812fc1461013d575b600080fd5b61010960048036038101906101049190611809565b6102f5565b6040516101169190611bb2565b60405180910390f35b6101276103d7565b6040516101349190611bcd565b60405180910390f35b61015760048036038101906101529190611863565b610469565b6040516101649190611b4b565b60405180910390f35b610187600480360381019061018291906117c9565b6104ee565b005b610191610606565b60405161019e9190611d8f565b60405180910390f35b6101c160048036038101906101bc91906116b3565b61060b565b005b6101dd60048036038101906101d891906116b3565b61066b565b005b6101f960048036038101906101f49190611863565b61068b565b6040516102069190611b4b565b60405180910390f35b61022960048036038101906102249190611646565b61073d565b6040516102369190611d8f565b60405180910390f35b6102476107f5565b6040516102549190611bcd565b60405180910390f35b61027760048036038101906102729190611789565b610887565b005b610293600480360381019061028e9190611706565b61089d565b005b6102af60048036038101906102aa9190611863565b6108ff565b6040516102bc9190611bcd565b60405180910390f35b6102df60048036038101906102da9190611673565b610a51565b6040516102ec9190611bb2565b60405180910390f35b60007f80ac58cd000000000000000000000000000000000000000000000000000000007bffffffffffffffffffffffffffffffffffffffffffffffffffffffff1916827bffffffffffffffffffffffffffffffffffffffffffffffffffffffff191614806103c057507f5b5e139f000000000000000000000000000000000000000000000000000000007bffffffffffffffffffffffffffffffffffffffffffffffffffffffff1916827bffffffffffffffffffffffffffffffffffffffffffffffffffffffff1916145b806103d057506103cf82610ae5565b5b9050919050565b6060600080546103e690611fb4565b80601f016020809104026020016040519081016040528092919081815260200182805461041290611fb4565b801561045f5780601f106104345761010080835404028352916020019161045f565b820191906000526020600020905b81548152906001019060200180831161044257829003601f168201915b5050505050905090565b600061047482610b4f565b6104b3576040517f08c379a00000000000000000000000000000000000000000000000000000000081526004016104aa90611d0f565b60405180910390fd5b6004600083815260200190815260200160002060009054906101000a900473ffffffffffffffffffffffffffffffffffffffff169050919050565b60006104f98261068b565b90508073ffffffffffffffffffffffffffffffffffffffff168373ffffffffffffffffffffffffffffffffffffffff16141561056a576040517f08c379a000000000000000000000000000000000000000000000000000000000815260040161056190611d4f565b60405180910390fd5b8073ffffffffffffffffffffffffffffffffffffffff16610589610bbb565b73ffffffffffffffffffffffffffffffffffffffff1614806105b857506105b7816105b2610bbb565b610a51565b5b6105f7576040517f08c379a00000000000000000000000000000000000000000000000000000000081526004016105ee90611c8f565b60405180910390fd5b6106018383610bc3565b505050565b600090565b61061c610616610bbb565b82610c7c565b61065b576040517f08c379a000000000000000000000000000000000000000000000000000000000815260040161065290611d6f565b60405180910390fd5b610666838383610d5a565b505050565b6106868383836040518060200160405280600081525061089d565b505050565b6000806002600084815260200190815260200160002060009054906101000a900473ffffffffffffffffffffffffffffffffffffffff169050600073ffffffffffffffffffffffffffffffffffffffff168173ffffffffffffffffffffffffffffffffffffffff161415610734576040517f08c379a000000000000000000000000000000000000000000000000000000000815260040161072b90611ccf565b60405180910390fd5b80915050919050565b60008073ffffffffffffffffffffffffffffffffffffffff168273ffffffffffffffffffffffffffffffffffffffff1614156107ae576040517f08c379a00000000000000000000000000000000000000000000000000000000081526004016107a590611caf565b60405180910390fd5b600360008373ffffffffffffffffffffffffffffffffffffffff1673ffffffffffffffffffffffffffffffffffffffff168152602001908152602001600020549050919050565b60606001805461080490611fb4565b80601f016020809104026020016040519081016040528092919081815260200182805461083090611fb4565b801561087d5780601f106108525761010080835404028352916020019161087d565b820191906000526020600020905b81548152906001019060200180831161086057829003601f168201915b5050505050905090565b610899610892610bbb565b8383610fc1565b5050565b6108ae6108a8610bbb565b83610c7c565b6108ed576040517f08c379a00000000000000000000000000000000000000000000000000000000081526004016108e490611d6f565b60405180910390fd5b6108f98484848461112e565b50505050565b606061090a82610b4f565b610949576040517f08c379a000000000000000000000000000000000000000000000000000000000815260040161094090611cef565b60405180910390fd5b600060066000848152602001908152602001600020805461096990611fb4565b80601f016020809104026020016040519081016040528092919081815260200182805461099590611fb4565b80156109e25780601f106109b7576101008083540402835291602001916109e2565b820191906000526020600020905b8154815290600101906020018083116109c557829003601f168201915b5050505050905060006109f361118a565b9050600081511415610a09578192505050610a4c565b600082511115610a3e578082604051602001610a26929190611b27565b60405160208183030381529060405292505050610a4c565b610a47846111a1565b925050505b919050565b6000600560008473ffffffffffffffffffffffffffffffffffffffff1673ffffffffffffffffffffffffffffffffffffffff16815260200190815260200160002060008373ffffffffffffffffffffffffffffffffffffffff1673ffffffffffffffffffffffffffffffffffffffff16815260200190815260200160002060009054906101000a900460ff16905092915050565b60007f01ffc9a7000000000000000000000000000000000000000000000000000000007bffffffffffffffffffffffffffffffffffffffffffffffffffffffff1916827bffffffffffffffffffffffffffffffffffffffffffffffffffffffff1916149050919050565b60008073ffffffffffffffffffffffffffffffffffffffff166002600084815260200190815260200160002060009054906101000a900473ffffffffffffffffffffffffffffffffffffffff1673ffffffffffffffffffffffffffffffffffffffff1614159050919050565b600033905090565b816004600083815260200190815260200160002060006101000a81548173ffffffffffffffffffffffffffffffffffffffff021916908373ffffffffffffffffffffffffffffffffffffffff160217905550808273ffffffffffffffffffffffffffffffffffffffff16610c368361068b565b73ffffffffffffffffffffffffffffffffffffffff167f8c5be1e5ebec7d5bd14f71427d1e84f3dd0314c0f7b2291e5b200ac8c7c3b92560405160405180910390a45050565b6000610c8782610b4f565b610cc6576040517f08c379a0000000000000000000000000000000000000000000000000000000008152600401610cbd90611c6f565b60405180910390fd5b6000610cd18361068b565b90508073ffffffffffffffffffffffffffffffffffffffff168473ffffffffffffffffffffffffffffffffffffffff161480610d135750610d128185610a51565b5b80610d5157508373ffffffffffffffffffffffffffffffffffffffff16610d3984610469565b73ffffffffffffffffffffffffffffffffffffffff16145b91505092915050565b8273ffffffffffffffffffffffffffffffffffffffff16610d7a8261068b565b73ffffffffffffffffffffffffffffffffffffffff1614610dd0576040517f08c379a0000000000000000000000000000000000000000000000000000000008152600401610dc790611c0f565b60405180910390fd5b600073ffffffffffffffffffffffffffffffffffffffff168273ffffffffffffffffffffffffffffffffffffffff161415610e40576040517f08c379a0000000000000000000000000000000000000000000000000000000008152600401610e3790611c2f565b60405180910390fd5b610e4b838383611248565b610e56600082610bc3565b6001600360008573ffffffffffffffffffffffffffffffffffffffff1673ffffffffffffffffffffffffffffffffffffffff1681526020019081526020016000206000828254610ea69190611eca565b925050819055506001600360008473ffffffffffffffffffffffffffffffffffffffff1673ffffffffffffffffffffffffffffffffffffffff1681526020019081526020016000206000828254610efd9190611e43565b92505081905550816002600083815260200190815260200160002060006101000a81548173ffffffffffffffffffffffffffffffffffffffff021916908373ffffffffffffffffffffffffffffffffffffffff160217905550808273ffffffffffffffffffffffffffffffffffffffff168473ffffffffffffffffffffffffffffffffffffffff167fddf252ad1be2c89b69c2b068fc378daa952ba7f163c4a11628f55a4df523b3ef60405160405180910390a4610fbc83838361124d565b505050565b8173ffffffffffffffffffffffffffffffffffffffff168373ffffffffffffffffffffffffffffffffffffffff161415611030576040517f08c379a000000000000000000000000000000000000000000000000000000000815260040161102790611c4f565b60405180910390fd5b80600560008573ffffffffffffffffffffffffffffffffffffffff1673ffffffffffffffffffffffffffffffffffffffff16815260200190815260200160002060008473ffffffffffffffffffffffffffffffffffffffff1673ffffffffffffffffffffffffffffffffffffffff16815260200190815260200160002060006101000a81548160ff0219169083151502179055508173ffffffffffffffffffffffffffffffffffffffff168373ffffffffffffffffffffffffffffffffffffffff167f17307eab39ab6107e8899845ad3d59bd9653f200f220920489ca2b5937696c31836040516111219190611bb2565b60405180910390a3505050565b611139848484610d5a565b61114584848484611252565b611184576040517f08c379a000000000000000000000000000000000000000000000000000000000815260040161117b90611bef565b60405180910390fd5b50505050565b606060405180602001604052806000815250905090565b60606111ac82610b4f565b6111eb576040517f08c379a00000000000000000000000000000000000000000000000000000000081526004016111e290611d2f565b60405180910390fd5b60006111f561118a565b905060008151116112155760405180602001604052806000815250611240565b8061121f846113e9565b604051602001611230929190611b27565b6040516020818303038152906040525b915050919050565b505050565b505050565b60006112738473ffffffffffffffffffffffffffffffffffffffff1661154a565b156113dc578373ffffffffffffffffffffffffffffffffffffffff1663150b7a0261129c610bbb565b8786866040518563ffffffff1660e01b81526004016112be9493929190611b66565b602060405180830381600087803b1580156112d857600080fd5b505af192505050801561130957506040513d601f19601f820116820180604052508101906113069190611836565b60015b61138c573d8060008114611339576040519150601f19603f3d011682016040523d82523d6000602084013e61133e565b606091505b50600081511415611384576040517f08c379a000000000000000000000000000000000000000000000000000000000815260040161137b90611bef565b60405180910390fd5b805181602001fd5b63150b7a0260e01b7bffffffffffffffffffffffffffffffffffffffffffffffffffffffff1916817bffffffffffffffffffffffffffffffffffffffffffffffffffffffff1916149150506113e1565b600190505b949350505050565b60606000821415611431576040518060400160405280600181526020017f30000000000000000000000000000000000000000000000000000000000000008152509050611545565b600082905060005b6000821461146357808061144c90612017565b915050600a8261145c9190611e99565b9150611439565b60008167ffffffffffffffff81111561147f5761147e61214d565b5b6040519080825280601f01601f1916602001820160405280156114b15781602001600182028036833780820191505090505b5090505b6000851461153e576001826114ca9190611eca565b9150600a856114d99190612060565b60306114e59190611e43565b60f81b8183815181106114fb576114fa61211e565b5b60200101907effffffffffffffffffffffffffffffffffffffffffffffffffffffffffffff1916908160001a905350600a856115379190611e99565b94506114b5565b8093505050505b919050565b6000808273ffffffffffffffffffffffffffffffffffffffff163b119050919050565b600061158061157b84611dcf565b611daa565b90508281526020810184848401111561159c5761159b612181565b5b6115a7848285611f72565b509392505050565b6000813590506115be8161257e565b92915050565b6000813590506115d381612595565b92915050565b6000813590506115e8816125ac565b92915050565b6000815190506115fd816125ac565b92915050565b600082601f8301126116185761161761217c565b5b813561162884826020860161156d565b91505092915050565b600081359050611640816125c3565b92915050565b60006020828403121561165c5761165b61218b565b5b600061166a848285016115af565b91505092915050565b6000806040838503121561168a5761168961218b565b5b6000611698858286016115af565b92505060206116a9858286016115af565b9150509250929050565b6000806000606084860312156116cc576116cb61218b565b5b60006116da868287016115af565b93505060206116eb868287016115af565b92505060406116fc86828701611631565b9150509250925092565b600080600080608085870312156117205761171f61218b565b5b600061172e878288016115af565b945050602061173f878288016115af565b935050604061175087828801611631565b925050606085013567ffffffffffffffff81111561177157611770612186565b5b61177d87828801611603565b91505092959194509250565b600080604083850312156117a05761179f61218b565b5b60006117ae858286016115af565b92505060206117bf858286016115c4565b9150509250929050565b600080604083850312156117e0576117df61218b565b5b60006117ee858286016115af565b92505060206117ff85828601611631565b9150509250929050565b60006020828403121561181f5761181e61218b565b5b600061182d848285016115d9565b91505092915050565b60006020828403121561184c5761184b61218b565b5b600061185a848285016115ee565b91505092915050565b6000602082840312156118795761187861218b565b5b600061188784828501611631565b91505092915050565b61189981611efe565b82525050565b6118a881611f10565b82525050565b60006118b982611e00565b6118c38185611e16565b93506118d3818560208601611f81565b6118dc81612190565b840191505092915050565b60006118f282611e0b565b6118fc8185611e27565b935061190c818560208601611f81565b61191581612190565b840191505092915050565b600061192b82611e0b565b6119358185611e38565b9350611945818560208601611f81565b80840191505092915050565b600061195e603283611e27565b9150611969826121a1565b604082019050919050565b6000611981602583611e27565b915061198c826121f0565b604082019050919050565b60006119a4602483611e27565b91506119af8261223f565b604082019050919050565b60006119c7601983611e27565b91506119d28261228e565b602082019050919050565b60006119ea602c83611e27565b91506119f5826122b7565b604082019050919050565b6000611a0d603883611e27565b9150611a1882612306565b604082019050919050565b6000611a30602a83611e27565b9150611a3b82612355565b604082019050919050565b6000611a53602983611e27565b9150611a5e826123a4565b604082019050919050565b6000611a76603183611e27565b9150611a81826123f3565b604082019050919050565b6000611a99602c83611e27565b9150611aa482612442565b604082019050919050565b6000611abc602f83611e27565b9150611ac782612491565b604082019050919050565b6000611adf602183611e27565b9150611aea826124e0565b604082019050919050565b6000611b02603183611e27565b9150611b0d8261252f565b604082019050919050565b611b2181611f68565b82525050565b6000611b338285611920565b9150611b3f8284611920565b91508190509392505050565b6000602082019050611b606000830184611890565b92915050565b6000608082019050611b7b6000830187611890565b611b886020830186611890565b611b956040830185611b18565b8181036060830152611ba781846118ae565b905095945050505050565b6000602082019050611bc7600083018461189f565b92915050565b60006020820190508181036000830152611be781846118e7565b905092915050565b60006020820190508181036000830152611c0881611951565b9050919050565b60006020820190508181036000830152611c2881611974565b9050919050565b60006020820190508181036000830152611c4881611997565b9050919050565b60006020820190508181036000830152611c68816119ba565b9050919050565b60006020820190508181036000830152611c88816119dd565b9050919050565b60006020820190508181036000830152611ca881611a00565b9050919050565b60006020820190508181036000830152611cc881611a23565b9050919050565b60006020820190508181036000830152611ce881611a46565b9050919050565b60006020820190508181036000830152611d0881611a69565b9050919050565b60006020820190508181036000830152611d2881611a8c565b9050919050565b60006020820190508181036000830152611d4881611aaf565b9050919050565b60006020820190508181036000830152611d6881611ad2565b9050919050565b60006020820190508181036000830152611d8881611af5565b9050919050565b6000602082019050611da46000830184611b18565b92915050565b6000611db4611dc5565b9050611dc08282611fe6565b919050565b6000604051905090565b600067ffffffffffffffff821115611dea57611de961214d565b5b611df382612190565b9050602081019050919050565b600081519050919050565b600081519050919050565b600082825260208201905092915050565b600082825260208201905092915050565b600081905092915050565b6000611e4e82611f68565b9150611e5983611f68565b9250827fffffffffffffffffffffffffffffffffffffffffffffffffffffffffffffffff03821115611e8e57611e8d612091565b5b828201905092915050565b6000611ea482611f68565b9150611eaf83611f68565b925082611ebf57611ebe6120c0565b5b828204905092915050565b6000611ed582611f68565b9150611ee083611f68565b925082821015611ef357611ef2612091565b5b828203905092915050565b6000611f0982611f48565b9050919050565b60008115159050919050565b60007fffffffff0000000000000000000000000000000000000000000000000000000082169050919050565b600073ffffffffffffffffffffffffffffffffffffffff82169050919050565b6000819050919050565b82818337600083830152505050565b60005b83811015611f9f578082015181840152602081019050611f84565b83811115611fae576000848401525b50505050565b60006002820490506001821680611fcc57607f821691505b60208210811415611fe057611fdf6120ef565b5b50919050565b611fef82612190565b810181811067ffffffffffffffff8211171561200e5761200d61214d565b5b80604052505050565b600061202282611f68565b91507fffffffffffffffffffffffffffffffffffffffffffffffffffffffffffffffff82141561205557612054612091565b5b600182019050919050565b600061206b82611f68565b915061207683611f68565b925082612086576120856120c0565b5b828206905092915050565b7f4e487b7100000000000000000000000000000000000000000000000000000000600052601160045260246000fd5b7f4e487b7100000000000000000000000000000000000000000000000000000000600052601260045260246000fd5b7f4e487b7100000000000000000000000000000000000000000000000000000000600052602260045260246000fd5b7f4e487b7100000000000000000000000000000000000000000000000000000000600052603260045260246000fd5b7f4e487b7100000000000000000000000000000000000000000000000000000000600052604160045260246000fd5b600080fd5b600080fd5b600080fd5b600080fd5b6000601f19601f8301169050919050565b7f4552433732313a207472616e7366657220746f206e6f6e20455243373231526560008201527f63656976657220696d706c656d656e7465720000000000000000000000000000602082015250565b7f4552433732313a207472616e736665722066726f6d20696e636f72726563742060008201527f6f776e6572000000000000000000000000000000000000000000000000000000602082015250565b7f4552433732313a207472616e7366657220746f20746865207a65726f2061646460008201527f7265737300000000000000000000000000000000000000000000000000000000602082015250565b7f4552433732313a20617070726f766520746f2063616c6c657200000000000000600082015250565b7f4552433732313a206f70657261746f7220717565727920666f72206e6f6e657860008201527f697374656e7420746f6b656e0000000000000000000000000000000000000000602082015250565b7f4552433732313a20617070726f76652063616c6c6572206973206e6f74206f7760008201527f6e6572206e6f7220617070726f76656420666f7220616c6c0000000000000000602082015250565b7f4552433732313a2062616c616e636520717565727920666f7220746865207a6560008201527f726f206164647265737300000000000000000000000000000000000000000000602082015250565b7f4552433732313a206f776e657220717565727920666f72206e6f6e657869737460008201527f656e7420746f6b656e0000000000000000000000000000000000000000000000602082015250565b7f45524337323155524953746f726167653a2055524920717565727920666f722060008201527f6e6f6e6578697374656e7420746f6b656e000000000000000000000000000000602082015250565b7f4552433732313a20617070726f76656420717565727920666f72206e6f6e657860008201527f697374656e7420746f6b656e0000000000000000000000000000000000000000602082015250565b7f4552433732314d657461646174613a2055524920717565727920666f72206e6f60008201527f6e6578697374656e7420746f6b656e0000000000000000000000000000000000602082015250565b7f4552433732313a20617070726f76616c20746f2063757272656e74206f776e6560008201527f7200000000000000000000000000000000000000000000000000000000000000602082015250565b7f4552433732313a207472616e736665722063616c6c6572206973206e6f74206f60008201527f776e6572206e6f7220617070726f766564000000000000000000000000000000602082015250565b61258781611efe565b811461259257600080fd5b50565b61259e81611f10565b81146125a957600080fd5b50565b6125b581611f1c565b81146125c057600080fd5b50565b6125cc81611f68565b81146125d757600080fd5b5056fea2646970667358221220489246cdc66923fca8839ca437e68c008b8930f41d97bb07a0655d023a10812a64736f6c63430008070033",
  "linkReferences": {},
  "deployedLinkReferences": {}
}