{
  "_format": "hh-sol-artifact-1",
  "contractName": "RandomIpfsNft",
  "sourceName": "contracts/RandomIpfsNft.sol",
  "abi": [
    {
      "inputs": [
        {
          "internalType": "address",
          "name": "vrfCoordinatorV2",
          "type": "address"
        },
        {
          "internalType": "uint64",
          "name": "subscriptionId",
          "type": "uint64"
        },
        {
          "internalType": "bytes32",
          "name": "gasLane",
          "type": "bytes32"
        },
        {
          "internalType": "uint256",
          "name": "mintFee",
          "type": "uint256"
        },
        {
          "internalType": "uint32",
          "name": "callbackGasLimit",
          "type": "uint32"
        },
        {
          "internalType": "string[3]",
          "name": "dogTokenUris",
          "type": "string[3]"
        }
      ],
      "stateMutability": "nonpayable",
      "type": "constructor"
    },
    {
      "inputs": [],
      "name": "AlreadyInitialized",
      "type": "error"
    },
    {
      "inputs": [],
      "name": "NeedMoreETHSent",
      "type": "error"
    },
    {
      "inputs": [
        {
          "internalType": "address",
          "name": "have",
          "type": "address"
        },
        {
          "internalType": "address",
          "name": "want",
          "type": "address"
        }
      ],
      "name": "OnlyCoordinatorCanFulfill",
      "type": "error"
    },
    {
      "inputs": [],
      "name": "RangeOutOfBounds",
      "type": "error"
    },
    {
      "anonymous": false,
      "inputs": [
        {
          "indexed": true,
          "internalType": "address",
          "name": "owner",
          "type": "address"
        },
        {
          "indexed": true,
          "internalType": "address",
          "name": "approved",
          "type": "address"
        },
        {
          "indexed": true,
          "internalType": "uint256",
          "name": "tokenId",
          "type": "uint256"
        }
      ],
      "name": "Approval",
      "type": "event"
    },
    {
      "anonymous": false,
      "inputs": [
        {
          "indexed": true,
          "internalType": "address",
          "name": "owner",
          "type": "address"
        },
        {
          "indexed": true,
          "internalType": "address",
          "name": "operator",
          "type": "address"
        },
        {
          "indexed": false,
          "internalType": "bool",
          "name": "approved",
          "type": "bool"
        }
      ],
      "name": "ApprovalForAll",
      "type": "event"
    },
    {
      "anonymous": false,
      "inputs": [
        {
          "indexed": false,
          "internalType": "enum RandomIpfsNft.Breed",
          "name": "breed",
          "type": "uint8"
        },
        {
          "indexed": false,
          "internalType": "address",
          "name": "minter",
          "type": "address"
        }
      ],
      "name": "NftMinted",
      "type": "event"
    },
    {
      "anonymous": false,
      "inputs": [
        {
          "indexed": true,
          "internalType": "uint256",
          "name": "requestId",
          "type": "uint256"
        },
        {
          "indexed": false,
          "internalType": "address",
          "name": "requester",
          "type": "address"
        }
      ],
      "name": "NftRequested",
      "type": "event"
    },
    {
      "anonymous": false,
      "inputs": [
        {
          "indexed": true,
          "internalType": "address",
          "name": "previousOwner",
          "type": "address"
        },
        {
          "indexed": true,
          "internalType": "address",
          "name": "newOwner",
          "type": "address"
        }
      ],
      "name": "OwnershipTransferred",
      "type": "event"
    },
    {
      "anonymous": false,
      "inputs": [
        {
          "indexed": true,
          "internalType": "address",
          "name": "from",
          "type": "address"
        },
        {
          "indexed": true,
          "internalType": "address",
          "name": "to",
          "type": "address"
        },
        {
          "indexed": true,
          "internalType": "uint256",
          "name": "tokenId",
          "type": "uint256"
        }
      ],
      "name": "Transfer",
      "type": "event"
    },
    {
      "inputs": [
        {
          "internalType": "address",
          "name": "to",
          "type": "address"
        },
        {
          "internalType": "uint256",
          "name": "tokenId",
          "type": "uint256"
        }
      ],
      "name": "approve",
      "outputs": [],
      "stateMutability": "nonpayable",
      "type": "function"
    },
    {
      "inputs": [
        {
          "internalType": "address",
          "name": "owner",
          "type": "address"
        }
      ],
      "name": "balanceOf",
      "outputs": [
        {
          "internalType": "uint256",
          "name": "",
          "type": "uint256"
        }
      ],
      "stateMutability": "view",
      "type": "function"
    },
    {
      "inputs": [
        {
          "internalType": "uint256",
          "name": "tokenId",
          "type": "uint256"
        }
      ],
      "name": "getApproved",
      "outputs": [
        {
          "internalType": "address",
          "name": "",
          "type": "address"
        }
      ],
      "stateMutability": "view",
      "type": "function"
    },
    {
      "inputs": [
        {
          "internalType": "uint256",
          "name": "moddedRng",
          "type": "uint256"
        }
      ],
      "name": "getBreedFromModdedRng",
      "outputs": [
        {
          "internalType": "enum RandomIpfsNft.Breed",
          "name": "",
          "type": "uint8"
        }
      ],
      "stateMutability": "pure",
      "type": "function"
    },
    {
      "inputs": [],
      "name": "getChanceArray",
      "outputs": [
        {
          "internalType": "uint256[3]",
          "name": "",
          "type": "uint256[3]"
        }
      ],
      "stateMutability": "pure",
      "type": "function"
    },
    {
      "inputs": [
        {
          "internalType": "uint256",
          "name": "index",
          "type": "uint256"
        }
      ],
      "name": "getDogTokenUris",
      "outputs": [
        {
          "internalType": "string",
          "name": "",
          "type": "string"
        }
      ],
      "stateMutability": "view",
      "type": "function"
    },
    {
      "inputs": [],
      "name": "getInitialized",
      "outputs": [
        {
          "internalType": "bool",
          "name": "",
          "type": "bool"
        }
      ],
      "stateMutability": "view",
      "type": "function"
    },
    {
      "inputs": [],
      "name": "getMintFee",
      "outputs": [
        {
          "internalType": "uint256",
          "name": "",
          "type": "uint256"
        }
      ],
      "stateMutability": "view",
      "type": "function"
    },
    {
      "inputs": [],
      "name": "getTokenCounter",
      "outputs": [
        {
          "internalType": "uint256",
          "name": "",
          "type": "uint256"
        }
      ],
      "stateMutability": "view",
      "type": "function"
    },
    {
      "inputs": [
        {
          "internalType": "address",
          "name": "owner",
          "type": "address"
        },
        {
          "internalType": "address",
          "name": "operator",
          "type": "address"
        }
      ],
      "name": "isApprovedForAll",
      "outputs": [
        {
          "internalType": "bool",
          "name": "",
          "type": "bool"
        }
      ],
      "stateMutability": "view",
      "type": "function"
    },
    {
      "inputs": [],
      "name": "name",
      "outputs": [
        {
          "internalType": "string",
          "name": "",
          "type": "string"
        }
      ],
      "stateMutability": "view",
      "type": "function"
    },
    {
      "inputs": [],
      "name": "owner",
      "outputs": [
        {
          "internalType": "address",
          "name": "",
          "type": "address"
        }
      ],
      "stateMutability": "view",
      "type": "function"
    },
    {
      "inputs": [
        {
          "internalType": "uint256",
          "name": "tokenId",
          "type": "uint256"
        }
      ],
      "name": "ownerOf",
      "outputs": [
        {
          "internalType": "address",
          "name": "",
          "type": "address"
        }
      ],
      "stateMutability": "view",
      "type": "function"
    },
    {
      "inputs": [
        {
          "internalType": "uint256",
          "name": "requestId",
          "type": "uint256"
        },
        {
          "internalType": "uint256[]",
          "name": "randomWords",
          "type": "uint256[]"
        }
      ],
      "name": "rawFulfillRandomWords",
      "outputs": [],
      "stateMutability": "nonpayable",
      "type": "function"
    },
    {
      "inputs": [],
      "name": "renounceOwnership",
      "outputs": [],
      "stateMutability": "nonpayable",
      "type": "function"
    },
    {
      "inputs": [],
      "name": "requestNft",
      "outputs": [
        {
          "internalType": "uint256",
          "name": "requestId",
          "type": "uint256"
        }
      ],
      "stateMutability": "payable",
      "type": "function"
    },
    {
      "inputs": [
        {
          "internalType": "uint256",
          "name": "",
          "type": "uint256"
        }
      ],
      "name": "s_requestIdToSender",
      "outputs": [
        {
          "internalType": "address",
          "name": "",
          "type": "address"
        }
      ],
      "stateMutability": "view",
      "type": "function"
    },
    {
      "inputs": [],
      "name": "s_tokenCounter",
      "outputs": [
        {
          "internalType": "uint256",
          "name": "",
          "type": "uint256"
        }
      ],
      "stateMutability": "view",
      "type": "function"
    },
    {
      "inputs": [
        {
          "internalType": "address",
          "name": "from",
          "type": "address"
        },
        {
          "internalType": "address",
          "name": "to",
          "type": "address"
        },
        {
          "internalType": "uint256",
          "name": "tokenId",
          "type": "uint256"
        }
      ],
      "name": "safeTransferFrom",
      "outputs": [],
      "stateMutability": "nonpayable",
      "type": "function"
    },
    {
      "inputs": [
        {
          "internalType": "address",
          "name": "from",
          "type": "address"
        },
        {
          "internalType": "address",
          "name": "to",
          "type": "address"
        },
        {
          "internalType": "uint256",
          "name": "tokenId",
          "type": "uint256"
        },
        {
          "internalType": "bytes",
          "name": "_data",
          "type": "bytes"
        }
      ],
      "name": "safeTransferFrom",
      "outputs": [],
      "stateMutability": "nonpayable",
      "type": "function"
    },
    {
      "inputs": [
        {
          "internalType": "address",
          "name": "operator",
          "type": "address"
        },
        {
          "internalType": "bool",
          "name": "approved",
          "type": "bool"
        }
      ],
      "name": "setApprovalForAll",
      "outputs": [],
      "stateMutability": "nonpayable",
      "type": "function"
    },
    {
      "inputs": [
        {
          "internalType": "bytes4",
          "name": "interfaceId",
          "type": "bytes4"
        }
      ],
      "name": "supportsInterface",
      "outputs": [
        {
          "internalType": "bool",
          "name": "",
          "type": "bool"
        }
      ],
      "stateMutability": "view",
      "type": "function"
    },
    {
      "inputs": [],
      "name": "symbol",
      "outputs": [
        {
          "internalType": "string",
          "name": "",
          "type": "string"
        }
      ],
      "stateMutability": "view",
      "type": "function"
    },
    {
      "inputs": [
        {
          "internalType": "uint256",
          "name": "tokenId",
          "type": "uint256"
        }
      ],
      "name": "tokenURI",
      "outputs": [
        {
          "internalType": "string",
          "name": "",
          "type": "string"
        }
      ],
      "stateMutability": "view",
      "type": "function"
    },
    {
      "inputs": [
        {
          "internalType": "address",
          "name": "from",
          "type": "address"
        },
        {
          "internalType": "address",
          "name": "to",
          "type": "address"
        },
        {
          "internalType": "uint256",
          "name": "tokenId",
          "type": "uint256"
        }
      ],
      "name": "transferFrom",
      "outputs": [],
      "stateMutability": "nonpayable",
      "type": "function"
    },
    {
      "inputs": [
        {
          "internalType": "address",
          "name": "newOwner",
          "type": "address"
        }
      ],
      "name": "transferOwnership",
      "outputs": [],
      "stateMutability": "nonpayable",
      "type": "function"
    },
    {
      "inputs": [],
      "name": "withdraw",
      "outputs": [],
      "stateMutability": "nonpayable",
      "type": "function"
    }
  ],
  "bytecode": "0x6101206040523480156200001257600080fd5b506040516200481638038062004816833981810160405281019062000038919062000880565b856040518060400160405280600f81526020017f52616e646f6d2049504653204e465400000000000000000000000000000000008152506040518060400160405280600381526020017f52494e00000000000000000000000000000000000000000000000000000000008152508160009080519060200190620000bd92919062000313565b508060019080519060200190620000d692919062000313565b5050508073ffffffffffffffffffffffffffffffffffffffff1660808173ffffffffffffffffffffffffffffffffffffffff1660601b81525050506200013162000125620001cb60201b60201c565b620001d360201b60201c565b8573ffffffffffffffffffffffffffffffffffffffff1660a08173ffffffffffffffffffffffffffffffffffffffff1660601b815250508360e081815250508467ffffffffffffffff1660c08167ffffffffffffffff1660c01b81525050826008819055508163ffffffff166101008163ffffffff1660e01b81525050620001bf816200029960201b60201c565b505050505050620009a0565b600033905090565b6000600760009054906101000a900473ffffffffffffffffffffffffffffffffffffffff16905081600760006101000a81548173ffffffffffffffffffffffffffffffffffffffff021916908373ffffffffffffffffffffffffffffffffffffffff1602179055508173ffffffffffffffffffffffffffffffffffffffff168173ffffffffffffffffffffffffffffffffffffffff167f8be0079c531659141344cd1fd0a4f28419497f9722a3daafe3b4186f6b6457e060405160405180910390a35050565b600c60009054906101000a900460ff1615620002e1576040517f0dc149f000000000000000000000000000000000000000000000000000000000815260040160405180910390fd5b80600b906003620002f4929190620003a4565b506001600c60006101000a81548160ff02191690831515021790555050565b82805462000321906200096a565b90600052602060002090601f01602090048101928262000345576000855562000391565b82601f106200036057805160ff191683800117855562000391565b8280016001018555821562000391579182015b828111156200039057825182559160200191906001019062000373565b5b509050620003a091906200040b565b5090565b828054828255906000526020600020908101928215620003f8579160200282015b82811115620003f7578251829080519060200190620003e692919062000313565b5091602001919060010190620003c5565b5b5090506200040791906200042a565b5090565b5b80821115620004265760008160009055506001016200040c565b5090565b5b808211156200044e576000818162000444919062000452565b506001016200042b565b5090565b50805462000460906200096a565b6000825580601f1062000474575062000495565b601f0160209004906000526020600020908101906200049491906200040b565b5b50565b6000604051905090565b600080fd5b600080fd5b600073ffffffffffffffffffffffffffffffffffffffff82169050919050565b6000620004d982620004ac565b9050919050565b620004eb81620004cc565b8114620004f757600080fd5b50565b6000815190506200050b81620004e0565b92915050565b600067ffffffffffffffff82169050919050565b620005308162000511565b81146200053c57600080fd5b50565b600081519050620005508162000525565b92915050565b6000819050919050565b6200056b8162000556565b81146200057757600080fd5b50565b6000815190506200058b8162000560565b92915050565b6000819050919050565b620005a68162000591565b8114620005b257600080fd5b50565b600081519050620005c6816200059b565b92915050565b600063ffffffff82169050919050565b620005e781620005cc565b8114620005f357600080fd5b50565b6000815190506200060781620005dc565b92915050565b600080fd5b6000601f19601f8301169050919050565b7f4e487b7100000000000000000000000000000000000000000000000000000000600052604160045260246000fd5b6200065d8262000612565b810181811067ffffffffffffffff821117156200067f576200067e62000623565b5b80604052505050565b60006200069462000498565b9050620006a2828262000652565b919050565b600067ffffffffffffffff821115620006c557620006c462000623565b5b602082029050919050565b600080fd5b600080fd5b600067ffffffffffffffff821115620006f857620006f762000623565b5b620007038262000612565b9050602081019050919050565b60005b838110156200073057808201518184015260208101905062000713565b8381111562000740576000848401525b50505050565b60006200075d6200075784620006da565b62000688565b9050828152602081018484840111156200077c576200077b620006d5565b5b6200078984828562000710565b509392505050565b600082601f830112620007a957620007a86200060d565b5b8151620007bb84826020860162000746565b91505092915050565b6000620007db620007d584620006a7565b62000688565b90508060208402830185811115620007f857620007f7620006d0565b5b835b818110156200084657805167ffffffffffffffff8111156200082157620008206200060d565b5b80860162000830898262000791565b85526020850194505050602081019050620007fa565b5050509392505050565b600082601f8301126200086857620008676200060d565b5b600362000877848285620007c4565b91505092915050565b60008060008060008060c08789031215620008a0576200089f620004a2565b5b6000620008b089828a01620004fa565b9650506020620008c389828a016200053f565b9550506040620008d689828a016200057a565b9450506060620008e989828a01620005b5565b9350506080620008fc89828a01620005f6565b92505060a087015167ffffffffffffffff81111562000920576200091f620004a7565b5b6200092e89828a0162000850565b9150509295509295509295565b7f4e487b7100000000000000000000000000000000000000000000000000000000600052602260045260246000fd5b600060028204905060018216806200098357607f821691505b602082108114156200099a57620009996200093b565b5b50919050565b60805160601c60a05160601c60c05160c01c60e0516101005160e01c613e1e620009f860003960006111990152600061115501526000611176015260006111190152600081816109a201526109f60152613e1e6000f3fe60806040526004361061019c5760003560e01c806370a08231116100ec578063a51cccf31161008a578063c87b56dd11610064578063c87b56dd146105bb578063e985e9c5146105f8578063ee89dab414610635578063f2fde38b146106605761019c565b8063a51cccf314610537578063aa15249114610574578063b88d4fde146105925761019c565b80638da5cb5b116100c65780638da5cb5b1461047b57806395d89b41146104a6578063a22cb465146104d1578063a36f573b146104fa5761019c565b806370a08231146103fc578063715018a6146104395780637a5caab3146104505761019c565b806323b872dd1161015957806342842e0e1161013357806342842e0e146103405780635dacf5f4146103695780636352211e146103945780636e02007d146103d15761019c565b806323b872dd146102c35780633af25975146102ec5780633ccfd60b146103295761019c565b806301ffc9a7146101a157806306fdde03146101de578063081812fc14610209578063095ea7b3146102465780630b21a83b1461026f5780631fe543e31461029a575b600080fd5b3480156101ad57600080fd5b506101c860048036038101906101c391906126f2565b610689565b6040516101d5919061273a565b60405180910390f35b3480156101ea57600080fd5b506101f361076b565b60405161020091906127ee565b60405180910390f35b34801561021557600080fd5b50610230600480360381019061022b9190612846565b6107fd565b60405161023d91906128b4565b60405180910390f35b34801561025257600080fd5b5061026d600480360381019061026891906128fb565b610882565b005b34801561027b57600080fd5b5061028461099a565b604051610291919061294a565b60405180910390f35b3480156102a657600080fd5b506102c160048036038101906102bc9190612aad565b6109a0565b005b3480156102cf57600080fd5b506102ea60048036038101906102e59190612b09565b610a60565b005b3480156102f857600080fd5b50610313600480360381019061030e9190612846565b610ac0565b60405161032091906127ee565b60405180910390f35b34801561033557600080fd5b5061033e610b70565b005b34801561034c57600080fd5b5061036760048036038101906103629190612b09565b610ca1565b005b34801561037557600080fd5b5061037e610cc1565b60405161038b9190612c07565b60405180910390f35b3480156103a057600080fd5b506103bb60048036038101906103b69190612846565b610cec565b6040516103c891906128b4565b60405180910390f35b3480156103dd57600080fd5b506103e6610d9e565b6040516103f3919061294a565b60405180910390f35b34801561040857600080fd5b50610423600480360381019061041e9190612c22565b610da8565b604051610430919061294a565b60405180910390f35b34801561044557600080fd5b5061044e610e60565b005b34801561045c57600080fd5b50610465610ee8565b604051610472919061294a565b60405180910390f35b34801561048757600080fd5b50610490610ef2565b60405161049d91906128b4565b60405180910390f35b3480156104b257600080fd5b506104bb610f1c565b6040516104c891906127ee565b60405180910390f35b3480156104dd57600080fd5b506104f860048036038101906104f39190612c7b565b610fae565b005b34801561050657600080fd5b50610521600480360381019061051c9190612846565b610fc4565b60405161052e91906128b4565b60405180910390f35b34801561054357600080fd5b5061055e60048036038101906105599190612846565b610ff7565b60405161056b9190612d32565b60405180910390f35b61057c6110d9565b604051610589919061294a565b60405180910390f35b34801561059e57600080fd5b506105b960048036038101906105b49190612e02565b6112bb565b005b3480156105c757600080fd5b506105e260048036038101906105dd9190612846565b61131d565b6040516105ef91906127ee565b60405180910390f35b34801561060457600080fd5b5061061f600480360381019061061a9190612e85565b61146f565b60405161062c919061273a565b60405180910390f35b34801561064157600080fd5b5061064a611503565b604051610657919061273a565b60405180910390f35b34801561066c57600080fd5b5061068760048036038101906106829190612c22565b61151a565b005b60007f80ac58cd000000000000000000000000000000000000000000000000000000007bffffffffffffffffffffffffffffffffffffffffffffffffffffffff1916827bffffffffffffffffffffffffffffffffffffffffffffffffffffffff1916148061075457507f5b5e139f000000000000000000000000000000000000000000000000000000007bffffffffffffffffffffffffffffffffffffffffffffffffffffffff1916827bffffffffffffffffffffffffffffffffffffffffffffffffffffffff1916145b80610764575061076382611612565b5b9050919050565b60606000805461077a90612ef4565b80601f01602080910402602001604051908101604052809291908181526020018280546107a690612ef4565b80156107f35780601f106107c8576101008083540402835291602001916107f3565b820191906000526020600020905b8154815290600101906020018083116107d657829003601f168201915b5050505050905090565b60006108088261167c565b610847576040517f08c379a000000000000000000000000000000000000000000000000000000000815260040161083e90612f98565b60405180910390fd5b6004600083815260200190815260200160002060009054906101000a900473ffffffffffffffffffffffffffffffffffffffff169050919050565b600061088d82610cec565b90508073ffffffffffffffffffffffffffffffffffffffff168373ffffffffffffffffffffffffffffffffffffffff1614156108fe576040517f08c379a00000000000000000000000000000000000000000000000000000000081526004016108f59061302a565b60405180910390fd5b8073ffffffffffffffffffffffffffffffffffffffff1661091d6116e8565b73ffffffffffffffffffffffffffffffffffffffff16148061094c575061094b816109466116e8565b61146f565b5b61098b576040517f08c379a0000000000000000000000000000000000000000000000000000000008152600401610982906130bc565b60405180910390fd5b61099583836116f0565b505050565b60095481565b7f000000000000000000000000000000000000000000000000000000000000000073ffffffffffffffffffffffffffffffffffffffff163373ffffffffffffffffffffffffffffffffffffffff1614610a5257337f00000000000000000000000000000000000000000000000000000000000000006040517f1cf993f4000000000000000000000000000000000000000000000000000000008152600401610a499291906130dc565b60405180910390fd5b610a5c82826117a9565b5050565b610a71610a6b6116e8565b82611943565b610ab0576040517f08c379a0000000000000000000000000000000000000000000000000000000008152600401610aa790613177565b60405180910390fd5b610abb838383611a21565b505050565b6060600b8281548110610ad657610ad5613197565b5b906000526020600020018054610aeb90612ef4565b80601f0160208091040260200160405190810160405280929190818152602001828054610b1790612ef4565b8015610b645780601f10610b3957610100808354040283529160200191610b64565b820191906000526020600020905b815481529060010190602001808311610b4757829003601f168201915b50505050509050919050565b610b786116e8565b73ffffffffffffffffffffffffffffffffffffffff16610b96610ef2565b73ffffffffffffffffffffffffffffffffffffffff1614610bec576040517f08c379a0000000000000000000000000000000000000000000000000000000008152600401610be390613212565b60405180910390fd5b600047905060003373ffffffffffffffffffffffffffffffffffffffff1682604051610c1790613263565b60006040518083038185875af1925050503d8060008114610c54576040519150601f19603f3d011682016040523d82523d6000602084013e610c59565b606091505b5050905080610c9d576040517f08c379a0000000000000000000000000000000000000000000000000000000008152600401610c94906132c4565b60405180910390fd5b5050565b610cbc838383604051806020016040528060008152506112bb565b505050565b610cc96125c1565b6040518060600160405280600a8152602001601e81526020016064815250905090565b6000806002600084815260200190815260200160002060009054906101000a900473ffffffffffffffffffffffffffffffffffffffff169050600073ffffffffffffffffffffffffffffffffffffffff168173ffffffffffffffffffffffffffffffffffffffff161415610d95576040517f08c379a0000000000000000000000000000000000000000000000000000000008152600401610d8c90613356565b60405180910390fd5b80915050919050565b6000600954905090565b60008073ffffffffffffffffffffffffffffffffffffffff168273ffffffffffffffffffffffffffffffffffffffff161415610e19576040517f08c379a0000000000000000000000000000000000000000000000000000000008152600401610e10906133e8565b60405180910390fd5b600360008373ffffffffffffffffffffffffffffffffffffffff1673ffffffffffffffffffffffffffffffffffffffff168152602001908152602001600020549050919050565b610e686116e8565b73ffffffffffffffffffffffffffffffffffffffff16610e86610ef2565b73ffffffffffffffffffffffffffffffffffffffff1614610edc576040517f08c379a0000000000000000000000000000000000000000000000000000000008152600401610ed390613212565b60405180910390fd5b610ee66000611c88565b565b6000600854905090565b6000600760009054906101000a900473ffffffffffffffffffffffffffffffffffffffff16905090565b606060018054610f2b90612ef4565b80601f0160208091040260200160405190810160405280929190818152602001828054610f5790612ef4565b8015610fa45780601f10610f7957610100808354040283529160200191610fa4565b820191906000526020600020905b815481529060010190602001808311610f8757829003601f168201915b5050505050905090565b610fc0610fb96116e8565b8383611d4e565b5050565b600d6020528060005260406000206000915054906101000a900473ffffffffffffffffffffffffffffffffffffffff1681565b600080600090506000611008610cc1565b905060005b60038110156110a157828510158015611047575081816003811061103457611033613197565b5b6020020151836110449190613437565b85105b156110695780600281111561105f5761105e612cbb565b5b93505050506110d4565b81816003811061107c5761107b613197565b5b60200201518361108c9190613437565b925080806110999061348d565b91505061100d565b506040517f0655dc2500000000000000000000000000000000000000000000000000000000815260040160405180910390fd5b919050565b6000600854341015611117576040517f2e53d2d300000000000000000000000000000000000000000000000000000000815260040160405180910390fd5b7f000000000000000000000000000000000000000000000000000000000000000073ffffffffffffffffffffffffffffffffffffffff16635d3b1d307f00000000000000000000000000000000000000000000000000000000000000007f000000000000000000000000000000000000000000000000000000000000000060037f000000000000000000000000000000000000000000000000000000000000000060016040518663ffffffff1660e01b81526004016111da95949392919061354e565b602060405180830381600087803b1580156111f457600080fd5b505af1158015611208573d6000803e3d6000fd5b505050506040513d601f19601f8201168201806040525081019061122c91906135b6565b905033600d600083815260200190815260200160002060006101000a81548173ffffffffffffffffffffffffffffffffffffffff021916908373ffffffffffffffffffffffffffffffffffffffff160217905550807ff873236e6cc0ecc5be1a9a35c95ee5b8d1ac4cc7bfef0cc5060391d6cc98e26b336040516112b091906128b4565b60405180910390a290565b6112cc6112c66116e8565b83611943565b61130b576040517f08c379a000000000000000000000000000000000000000000000000000000000815260040161130290613177565b60405180910390fd5b61131784848484611ebb565b50505050565b60606113288261167c565b611367576040517f08c379a000000000000000000000000000000000000000000000000000000000815260040161135e90613655565b60405180910390fd5b600060066000848152602001908152602001600020805461138790612ef4565b80601f01602080910402602001604051908101604052809291908181526020018280546113b390612ef4565b80156114005780601f106113d557610100808354040283529160200191611400565b820191906000526020600020905b8154815290600101906020018083116113e357829003601f168201915b505050505090506000611411611f17565b905060008151141561142757819250505061146a565b60008251111561145c5780826040516020016114449291906136b1565b6040516020818303038152906040529250505061146a565b61146584611f2e565b925050505b919050565b6000600560008473ffffffffffffffffffffffffffffffffffffffff1673ffffffffffffffffffffffffffffffffffffffff16815260200190815260200160002060008373ffffffffffffffffffffffffffffffffffffffff1673ffffffffffffffffffffffffffffffffffffffff16815260200190815260200160002060009054906101000a900460ff16905092915050565b6000600c60009054906101000a900460ff16905090565b6115226116e8565b73ffffffffffffffffffffffffffffffffffffffff16611540610ef2565b73ffffffffffffffffffffffffffffffffffffffff1614611596576040517f08c379a000000000000000000000000000000000000000000000000000000000815260040161158d90613212565b60405180910390fd5b600073ffffffffffffffffffffffffffffffffffffffff168173ffffffffffffffffffffffffffffffffffffffff161415611606576040517f08c379a00000000000000000000000000000000000000000000000000000000081526004016115fd90613747565b60405180910390fd5b61160f81611c88565b50565b60007f01ffc9a7000000000000000000000000000000000000000000000000000000007bffffffffffffffffffffffffffffffffffffffffffffffffffffffff1916827bffffffffffffffffffffffffffffffffffffffffffffffffffffffff1916149050919050565b60008073ffffffffffffffffffffffffffffffffffffffff166002600084815260200190815260200160002060009054906101000a900473ffffffffffffffffffffffffffffffffffffffff1673ffffffffffffffffffffffffffffffffffffffff1614159050919050565b600033905090565b816004600083815260200190815260200160002060006101000a81548173ffffffffffffffffffffffffffffffffffffffff021916908373ffffffffffffffffffffffffffffffffffffffff160217905550808273ffffffffffffffffffffffffffffffffffffffff1661176383610cec565b73ffffffffffffffffffffffffffffffffffffffff167f8c5be1e5ebec7d5bd14f71427d1e84f3dd0314c0f7b2291e5b200ac8c7c3b92560405160405180910390a45050565b6000600d600084815260200190815260200160002060009054906101000a900473ffffffffffffffffffffffffffffffffffffffff1690506000600954905060016009546117f79190613437565b600981905550600060648460008151811061181557611814613197565b5b60200260200101516118279190613796565b9050600061183482610ff7565b90506118408484611fd5565b61190283600b83600281111561185957611858612cbb565b5b8154811061186a57611869613197565b5b90600052602060002001805461187f90612ef4565b80601f01602080910402602001604051908101604052809291908181526020018280546118ab90612ef4565b80156118f85780601f106118cd576101008083540402835291602001916118f8565b820191906000526020600020905b8154815290600101906020018083116118db57829003601f168201915b5050505050611ff3565b7f8a269f26b688e110e9cbd887d163dab35cae678fa353a0292de532c0cac1ecdc81856040516119339291906137c7565b60405180910390a1505050505050565b600061194e8261167c565b61198d576040517f08c379a000000000000000000000000000000000000000000000000000000000815260040161198490613862565b60405180910390fd5b600061199883610cec565b90508073ffffffffffffffffffffffffffffffffffffffff168473ffffffffffffffffffffffffffffffffffffffff1614806119da57506119d9818561146f565b5b80611a1857508373ffffffffffffffffffffffffffffffffffffffff16611a00846107fd565b73ffffffffffffffffffffffffffffffffffffffff16145b91505092915050565b8273ffffffffffffffffffffffffffffffffffffffff16611a4182610cec565b73ffffffffffffffffffffffffffffffffffffffff1614611a97576040517f08c379a0000000000000000000000000000000000000000000000000000000008152600401611a8e906138f4565b60405180910390fd5b600073ffffffffffffffffffffffffffffffffffffffff168273ffffffffffffffffffffffffffffffffffffffff161415611b07576040517f08c379a0000000000000000000000000000000000000000000000000000000008152600401611afe90613986565b60405180910390fd5b611b12838383612067565b611b1d6000826116f0565b6001600360008573ffffffffffffffffffffffffffffffffffffffff1673ffffffffffffffffffffffffffffffffffffffff1681526020019081526020016000206000828254611b6d91906139a6565b925050819055506001600360008473ffffffffffffffffffffffffffffffffffffffff1673ffffffffffffffffffffffffffffffffffffffff1681526020019081526020016000206000828254611bc49190613437565b92505081905550816002600083815260200190815260200160002060006101000a81548173ffffffffffffffffffffffffffffffffffffffff021916908373ffffffffffffffffffffffffffffffffffffffff160217905550808273ffffffffffffffffffffffffffffffffffffffff168473ffffffffffffffffffffffffffffffffffffffff167fddf252ad1be2c89b69c2b068fc378daa952ba7f163c4a11628f55a4df523b3ef60405160405180910390a4611c8383838361206c565b505050565b6000600760009054906101000a900473ffffffffffffffffffffffffffffffffffffffff16905081600760006101000a81548173ffffffffffffffffffffffffffffffffffffffff021916908373ffffffffffffffffffffffffffffffffffffffff1602179055508173ffffffffffffffffffffffffffffffffffffffff168173ffffffffffffffffffffffffffffffffffffffff167f8be0079c531659141344cd1fd0a4f28419497f9722a3daafe3b4186f6b6457e060405160405180910390a35050565b8173ffffffffffffffffffffffffffffffffffffffff168373ffffffffffffffffffffffffffffffffffffffff161415611dbd576040517f08c379a0000000000000000000000000000000000000000000000000000000008152600401611db490613a26565b60405180910390fd5b80600560008573ffffffffffffffffffffffffffffffffffffffff1673ffffffffffffffffffffffffffffffffffffffff16815260200190815260200160002060008473ffffffffffffffffffffffffffffffffffffffff1673ffffffffffffffffffffffffffffffffffffffff16815260200190815260200160002060006101000a81548160ff0219169083151502179055508173ffffffffffffffffffffffffffffffffffffffff168373ffffffffffffffffffffffffffffffffffffffff167f17307eab39ab6107e8899845ad3d59bd9653f200f220920489ca2b5937696c3183604051611eae919061273a565b60405180910390a3505050565b611ec6848484611a21565b611ed284848484612071565b611f11576040517f08c379a0000000000000000000000000000000000000000000000000000000008152600401611f0890613ab8565b60405180910390fd5b50505050565b606060405180602001604052806000815250905090565b6060611f398261167c565b611f78576040517f08c379a0000000000000000000000000000000000000000000000000000000008152600401611f6f90613b4a565b60405180910390fd5b6000611f82611f17565b90506000815111611fa25760405180602001604052806000815250611fcd565b80611fac84612208565b604051602001611fbd9291906136b1565b6040516020818303038152906040525b915050919050565b611fef828260405180602001604052806000815250612369565b5050565b611ffc8261167c565b61203b576040517f08c379a000000000000000000000000000000000000000000000000000000000815260040161203290613bdc565b60405180910390fd5b806006600084815260200190815260200160002090805190602001906120629291906125e3565b505050565b505050565b505050565b60006120928473ffffffffffffffffffffffffffffffffffffffff166123c4565b156121fb578373ffffffffffffffffffffffffffffffffffffffff1663150b7a026120bb6116e8565b8786866040518563ffffffff1660e01b81526004016120dd9493929190613c51565b602060405180830381600087803b1580156120f757600080fd5b505af192505050801561212857506040513d601f19601f820116820180604052508101906121259190613cb2565b60015b6121ab573d8060008114612158576040519150601f19603f3d011682016040523d82523d6000602084013e61215d565b606091505b506000815114156121a3576040517f08c379a000000000000000000000000000000000000000000000000000000000815260040161219a90613ab8565b60405180910390fd5b805181602001fd5b63150b7a0260e01b7bffffffffffffffffffffffffffffffffffffffffffffffffffffffff1916817bffffffffffffffffffffffffffffffffffffffffffffffffffffffff191614915050612200565b600190505b949350505050565b60606000821415612250576040518060400160405280600181526020017f30000000000000000000000000000000000000000000000000000000000000008152509050612364565b600082905060005b6000821461228257808061226b9061348d565b915050600a8261227b9190613cdf565b9150612258565b60008167ffffffffffffffff81111561229e5761229d61296a565b5b6040519080825280601f01601f1916602001820160405280156122d05781602001600182028036833780820191505090505b5090505b6000851461235d576001826122e991906139a6565b9150600a856122f89190613796565b60306123049190613437565b60f81b81838151811061231a57612319613197565b5b60200101907effffffffffffffffffffffffffffffffffffffffffffffffffffffffffffff1916908160001a905350600a856123569190613cdf565b94506122d4565b8093505050505b919050565b61237383836123e7565b6123806000848484612071565b6123bf576040517f08c379a00000000000000000000000000000000000000000000000000000000081526004016123b690613ab8565b60405180910390fd5b505050565b6000808273ffffffffffffffffffffffffffffffffffffffff163b119050919050565b600073ffffffffffffffffffffffffffffffffffffffff168273ffffffffffffffffffffffffffffffffffffffff161415612457576040517f08c379a000000000000000000000000000000000000000000000000000000000815260040161244e90613d5c565b60405180910390fd5b6124608161167c565b156124a0576040517f08c379a000000000000000000000000000000000000000000000000000000000815260040161249790613dc8565b60405180910390fd5b6124ac60008383612067565b6001600360008473ffffffffffffffffffffffffffffffffffffffff1673ffffffffffffffffffffffffffffffffffffffff16815260200190815260200160002060008282546124fc9190613437565b92505081905550816002600083815260200190815260200160002060006101000a81548173ffffffffffffffffffffffffffffffffffffffff021916908373ffffffffffffffffffffffffffffffffffffffff160217905550808273ffffffffffffffffffffffffffffffffffffffff16600073ffffffffffffffffffffffffffffffffffffffff167fddf252ad1be2c89b69c2b068fc378daa952ba7f163c4a11628f55a4df523b3ef60405160405180910390a46125bd6000838361206c565b5050565b6040518060600160405280600390602082028036833780820191505090505090565b8280546125ef90612ef4565b90600052602060002090601f0160209004810192826126115760008555612658565b82601f1061262a57805160ff1916838001178555612658565b82800160010185558215612658579182015b8281111561265757825182559160200191906001019061263c565b5b5090506126659190612669565b5090565b5b8082111561268257600081600090555060010161266a565b5090565b6000604051905090565b600080fd5b600080fd5b60007fffffffff0000000000000000000000000000000000000000000000000000000082169050919050565b6126cf8161269a565b81146126da57600080fd5b50565b6000813590506126ec816126c6565b92915050565b60006020828403121561270857612707612690565b5b6000612716848285016126dd565b91505092915050565b60008115159050919050565b6127348161271f565b82525050565b600060208201905061274f600083018461272b565b92915050565b600081519050919050565b600082825260208201905092915050565b60005b8381101561278f578082015181840152602081019050612774565b8381111561279e576000848401525b50505050565b6000601f19601f8301169050919050565b60006127c082612755565b6127ca8185612760565b93506127da818560208601612771565b6127e3816127a4565b840191505092915050565b6000602082019050818103600083015261280881846127b5565b905092915050565b6000819050919050565b61282381612810565b811461282e57600080fd5b50565b6000813590506128408161281a565b92915050565b60006020828403121561285c5761285b612690565b5b600061286a84828501612831565b91505092915050565b600073ffffffffffffffffffffffffffffffffffffffff82169050919050565b600061289e82612873565b9050919050565b6128ae81612893565b82525050565b60006020820190506128c960008301846128a5565b92915050565b6128d881612893565b81146128e357600080fd5b50565b6000813590506128f5816128cf565b92915050565b6000806040838503121561291257612911612690565b5b6000612920858286016128e6565b925050602061293185828601612831565b9150509250929050565b61294481612810565b82525050565b600060208201905061295f600083018461293b565b92915050565b600080fd5b7f4e487b7100000000000000000000000000000000000000000000000000000000600052604160045260246000fd5b6129a2826127a4565b810181811067ffffffffffffffff821117156129c1576129c061296a565b5b80604052505050565b60006129d4612686565b90506129e08282612999565b919050565b600067ffffffffffffffff821115612a00576129ff61296a565b5b602082029050602081019050919050565b600080fd5b6000612a29612a24846129e5565b6129ca565b90508083825260208201905060208402830185811115612a4c57612a4b612a11565b5b835b81811015612a755780612a618882612831565b845260208401935050602081019050612a4e565b5050509392505050565b600082601f830112612a9457612a93612965565b5b8135612aa4848260208601612a16565b91505092915050565b60008060408385031215612ac457612ac3612690565b5b6000612ad285828601612831565b925050602083013567ffffffffffffffff811115612af357612af2612695565b5b612aff85828601612a7f565b9150509250929050565b600080600060608486031215612b2257612b21612690565b5b6000612b30868287016128e6565b9350506020612b41868287016128e6565b9250506040612b5286828701612831565b9150509250925092565b600060039050919050565b600081905092915050565b6000819050919050565b612b8581612810565b82525050565b6000612b978383612b7c565b60208301905092915050565b6000602082019050919050565b612bb981612b5c565b612bc38184612b67565b9250612bce82612b72565b8060005b83811015612bff578151612be68782612b8b565b9650612bf183612ba3565b925050600181019050612bd2565b505050505050565b6000606082019050612c1c6000830184612bb0565b92915050565b600060208284031215612c3857612c37612690565b5b6000612c46848285016128e6565b91505092915050565b612c588161271f565b8114612c6357600080fd5b50565b600081359050612c7581612c4f565b92915050565b60008060408385031215612c9257612c91612690565b5b6000612ca0858286016128e6565b9250506020612cb185828601612c66565b9150509250929050565b7f4e487b7100000000000000000000000000000000000000000000000000000000600052602160045260246000fd5b60038110612cfb57612cfa612cbb565b5b50565b6000819050612d0c82612cea565b919050565b6000612d1c82612cfe565b9050919050565b612d2c81612d11565b82525050565b6000602082019050612d476000830184612d23565b92915050565b600080fd5b600067ffffffffffffffff821115612d6d57612d6c61296a565b5b612d76826127a4565b9050602081019050919050565b82818337600083830152505050565b6000612da5612da084612d52565b6129ca565b905082815260208101848484011115612dc157612dc0612d4d565b5b612dcc848285612d83565b509392505050565b600082601f830112612de957612de8612965565b5b8135612df9848260208601612d92565b91505092915050565b60008060008060808587031215612e1c57612e1b612690565b5b6000612e2a878288016128e6565b9450506020612e3b878288016128e6565b9350506040612e4c87828801612831565b925050606085013567ffffffffffffffff811115612e6d57612e6c612695565b5b612e7987828801612dd4565b91505092959194509250565b60008060408385031215612e9c57612e9b612690565b5b6000612eaa858286016128e6565b9250506020612ebb858286016128e6565b9150509250929050565b7f4e487b7100000000000000000000000000000000000000000000000000000000600052602260045260246000fd5b60006002820490506001821680612f0c57607f821691505b60208210811415612f2057612f1f612ec5565b5b50919050565b7f4552433732313a20617070726f76656420717565727920666f72206e6f6e657860008201527f697374656e7420746f6b656e0000000000000000000000000000000000000000602082015250565b6000612f82602c83612760565b9150612f8d82612f26565b604082019050919050565b60006020820190508181036000830152612fb181612f75565b9050919050565b7f4552433732313a20617070726f76616c20746f2063757272656e74206f776e6560008201527f7200000000000000000000000000000000000000000000000000000000000000602082015250565b6000613014602183612760565b915061301f82612fb8565b604082019050919050565b6000602082019050818103600083015261304381613007565b9050919050565b7f4552433732313a20617070726f76652063616c6c6572206973206e6f74206f7760008201527f6e6572206e6f7220617070726f76656420666f7220616c6c0000000000000000602082015250565b60006130a6603883612760565b91506130b18261304a565b604082019050919050565b600060208201905081810360008301526130d581613099565b9050919050565b60006040820190506130f160008301856128a5565b6130fe60208301846128a5565b9392505050565b7f4552433732313a207472616e736665722063616c6c6572206973206e6f74206f60008201527f776e6572206e6f7220617070726f766564000000000000000000000000000000602082015250565b6000613161603183612760565b915061316c82613105565b604082019050919050565b6000602082019050818103600083015261319081613154565b9050919050565b7f4e487b7100000000000000000000000000000000000000000000000000000000600052603260045260246000fd5b7f4f776e61626c653a2063616c6c6572206973206e6f7420746865206f776e6572600082015250565b60006131fc602083612760565b9150613207826131c6565b602082019050919050565b6000602082019050818103600083015261322b816131ef565b9050919050565b600081905092915050565b50565b600061324d600083613232565b91506132588261323d565b600082019050919050565b600061326e82613240565b9150819050919050565b7f5472616e73666572206661696c65640000000000000000000000000000000000600082015250565b60006132ae600f83612760565b91506132b982613278565b602082019050919050565b600060208201905081810360008301526132dd816132a1565b9050919050565b7f4552433732313a206f776e657220717565727920666f72206e6f6e657869737460008201527f656e7420746f6b656e0000000000000000000000000000000000000000000000602082015250565b6000613340602983612760565b915061334b826132e4565b604082019050919050565b6000602082019050818103600083015261336f81613333565b9050919050565b7f4552433732313a2062616c616e636520717565727920666f7220746865207a6560008201527f726f206164647265737300000000000000000000000000000000000000000000602082015250565b60006133d2602a83612760565b91506133dd82613376565b604082019050919050565b60006020820190508181036000830152613401816133c5565b9050919050565b7f4e487b7100000000000000000000000000000000000000000000000000000000600052601160045260246000fd5b600061344282612810565b915061344d83612810565b9250827fffffffffffffffffffffffffffffffffffffffffffffffffffffffffffffffff0382111561348257613481613408565b5b828201905092915050565b600061349882612810565b91507fffffffffffffffffffffffffffffffffffffffffffffffffffffffffffffffff8214156134cb576134ca613408565b5b600182019050919050565b6000819050919050565b6134e9816134d6565b82525050565b600067ffffffffffffffff82169050919050565b61350c816134ef565b82525050565b600061ffff82169050919050565b61352981613512565b82525050565b600063ffffffff82169050919050565b6135488161352f565b82525050565b600060a08201905061356360008301886134e0565b6135706020830187613503565b61357d6040830186613520565b61358a606083018561353f565b613597608083018461353f565b9695505050505050565b6000815190506135b08161281a565b92915050565b6000602082840312156135cc576135cb612690565b5b60006135da848285016135a1565b91505092915050565b7f45524337323155524953746f726167653a2055524920717565727920666f722060008201527f6e6f6e6578697374656e7420746f6b656e000000000000000000000000000000602082015250565b600061363f603183612760565b915061364a826135e3565b604082019050919050565b6000602082019050818103600083015261366e81613632565b9050919050565b600081905092915050565b600061368b82612755565b6136958185613675565b93506136a5818560208601612771565b80840191505092915050565b60006136bd8285613680565b91506136c98284613680565b91508190509392505050565b7f4f776e61626c653a206e6577206f776e657220697320746865207a65726f206160008201527f6464726573730000000000000000000000000000000000000000000000000000602082015250565b6000613731602683612760565b915061373c826136d5565b604082019050919050565b6000602082019050818103600083015261376081613724565b9050919050565b7f4e487b7100000000000000000000000000000000000000000000000000000000600052601260045260246000fd5b60006137a182612810565b91506137ac83612810565b9250826137bc576137bb613767565b5b828206905092915050565b60006040820190506137dc6000830185612d23565b6137e960208301846128a5565b9392505050565b7f4552433732313a206f70657261746f7220717565727920666f72206e6f6e657860008201527f697374656e7420746f6b656e0000000000000000000000000000000000000000602082015250565b600061384c602c83612760565b9150613857826137f0565b604082019050919050565b6000602082019050818103600083015261387b8161383f565b9050919050565b7f4552433732313a207472616e736665722066726f6d20696e636f72726563742060008201527f6f776e6572000000000000000000000000000000000000000000000000000000602082015250565b60006138de602583612760565b91506138e982613882565b604082019050919050565b6000602082019050818103600083015261390d816138d1565b9050919050565b7f4552433732313a207472616e7366657220746f20746865207a65726f2061646460008201527f7265737300000000000000000000000000000000000000000000000000000000602082015250565b6000613970602483612760565b915061397b82613914565b604082019050919050565b6000602082019050818103600083015261399f81613963565b9050919050565b60006139b182612810565b91506139bc83612810565b9250828210156139cf576139ce613408565b5b828203905092915050565b7f4552433732313a20617070726f766520746f2063616c6c657200000000000000600082015250565b6000613a10601983612760565b9150613a1b826139da565b602082019050919050565b60006020820190508181036000830152613a3f81613a03565b9050919050565b7f4552433732313a207472616e7366657220746f206e6f6e20455243373231526560008201527f63656976657220696d706c656d656e7465720000000000000000000000000000602082015250565b6000613aa2603283612760565b9150613aad82613a46565b604082019050919050565b60006020820190508181036000830152613ad181613a95565b9050919050565b7f4552433732314d657461646174613a2055524920717565727920666f72206e6f60008201527f6e6578697374656e7420746f6b656e0000000000000000000000000000000000602082015250565b6000613b34602f83612760565b9150613b3f82613ad8565b604082019050919050565b60006020820190508181036000830152613b6381613b27565b9050919050565b7f45524337323155524953746f726167653a2055524920736574206f66206e6f6e60008201527f6578697374656e7420746f6b656e000000000000000000000000000000000000602082015250565b6000613bc6602e83612760565b9150613bd182613b6a565b604082019050919050565b60006020820190508181036000830152613bf581613bb9565b9050919050565b600081519050919050565b600082825260208201905092915050565b6000613c2382613bfc565b613c2d8185613c07565b9350613c3d818560208601612771565b613c46816127a4565b840191505092915050565b6000608082019050613c6660008301876128a5565b613c7360208301866128a5565b613c80604083018561293b565b8181036060830152613c928184613c18565b905095945050505050565b600081519050613cac816126c6565b92915050565b600060208284031215613cc857613cc7612690565b5b6000613cd684828501613c9d565b91505092915050565b6000613cea82612810565b9150613cf583612810565b925082613d0557613d04613767565b5b828204905092915050565b7f4552433732313a206d696e7420746f20746865207a65726f2061646472657373600082015250565b6000613d46602083612760565b9150613d5182613d10565b602082019050919050565b60006020820190508181036000830152613d7581613d39565b9050919050565b7f4552433732313a20746f6b656e20616c7265616479206d696e74656400000000600082015250565b6000613db2601c83612760565b9150613dbd82613d7c565b602082019050919050565b60006020820190508181036000830152613de181613da5565b905091905056fea2646970667358221220a2417485c7a0f505c222b75c6e398ca56291ab8b91dd38972ba0559b0c5b55ab64736f6c63430008080033",
  "linkReferences": {},
  "deployedLinkReferences": {}
}